:020000041000EA
:1000000000B5324B212058609868022188439860DF
:10001000D860186158612E4B002199600221596106
:100020000121F02299502B49196001219960352056
:1000300000F044F80222904214D00621196600F024
:1000400034F8196E01211966002018661A6600F04E
:100050002CF8196E196E196E052000F02FF8012189
:100060000842F9D1002199601B49196000215960AB
:100070001A491B48016001219960EB211966A021F2
:10008000196600F012F800219960164914480160C1
:100090000121996001BC002800D000471248134993
:1000A000086003C880F30888084703B5996A0420EC
:1000B0000142FBD001200142F8D103BD02B5186610
:1000C0001866FFF7F2FF186E186E02BD00000240BE
:1000D000000000180000070000035F00212200005C
:1000E000F4000018222000A00001001008ED00E03C
:1000F00000000000000000000000000074B24E7A12
:1001000000200420F7010010CB010010CD010010E9
:10011000C9010010C9010010C9010010C901001077
:10012000C9010010C9010010C9010010CF01001061
:10013000C9010010C9010010D1010010D301001045
:10014000C1010010C1010010C1010010C101001067
:10015000C1010010C1010010C1010010C101001057
:10016000C1010010C1010010C1010010C101001047
:10017000C1010010C1010010C1010010C101001037
:10018000C1010010C1010010C1010010C101001027
:10019000C1010010C1010010C1010010C101001017
:1001A000C1010010C1010010C1010010C101001007
:1001B000C1010010C1010010C1010010C1010010F7
:1001C000EFF30580103800BE00BE00BE00BE00BECA
:1001D00000BE00BEF2EB8871484F0010784F00104F
:1001E0003802001090A31AE71E481F49086006C88D
:1001F00081F3088810471D480068002801D019487D
:10020000F3E70DA40ECC002902D000F012F8F9E7B4
:100210001749184A002000E001C19142FCD116495B
:100220008847164988471649884700BEFDE701C937
:1002300001C29A42FBD37047784F0010C0000020E3
:10024000A0100020585F00100000042000000420CF
:10025000585F00100010042000100420000000006F
:10026000704700000000000008ED00E0000000D032
:10027000A0100020E8230020C1230010210300105B
:10028000B9230010F8B5C0460448054B10B58342A9
:1002900003D0044B002B00D0984710BDA0100020C5
:1002A000A01000200000000006480749091A8B1022
:1002B000C90FC91810B5491003D0044B002B00D04A
:1002C000984710BDA0100020A010002000000000E2
:1002D00010B5074C2378002B09D1FFF7D5FF054B4C
:1002E000002B02D0044800E000BF0123237010BDA2
:1002F000201400200000000018490010054B10B524
:10030000002B03D00449054800E000BFFFF7CCFFF5
:1003100010BDC04600000000241400201849001041
:1003200000B5A1B002F04CF90021002003F0EAFD75
:1003300000F046F800F074F902E0012001F0CEFA76
:1003400001200021404202F063FD002003F03CFB4D
:100350000028F2D0002003F051FB0028EDD06946C0
:100360008022002003F058FB011EE6D0684600F012
:1003700067F9E2E73023F0B54746CE4699460023B9
:1003800080B500240700984683B00B4E01AD4B4664
:100390002B8043463200EB70290004230748AC70E1
:1003A00004F06EFAF3783B550134032CEFD103B01F
:1003B000C0BCB946B046F0BDB01F002000C003402D
:1003C00010B5112000F0D6FBD02380221B0692022C
:1003D0005A6201215A61132000F0B2FB0D4C012139
:1003E000122000F0ADFB0121102000F0A9FB20003D
:1003F000094902F04BFA0222084963680A60216841
:10040000134005325140C8320A4005490A60054A86
:10041000136010BD00C0034050C3000004F003404F
:1004200000D0034004E0034030B5D02480252406EA
:10043000AD0283B06561022001F050FAA561082485
:100440001E2001F04BFA0F4B0F4D019304232A009D
:100450000E4801A904F014FAAB78532B10D00A20EF
:10046000013C01F03BFA002CF0D1D02380221B0686
:10047000920202205A6101F031FA002003B030BD2F
:100480000120FBE7AC530000B01F002000C0034078
:10049000D023802210B51B06920202205A6101F07F
:1004A0001DFA10BD10B50E4C82B02368C82B06DDB6
:1004B0000C4802F0D7F8642001F010FAFBE70A4B71
:1004C0000A4A019301A90423094804F0D9F9092033
:1004D00001F004FA23680133236002B010BDC04666
:1004E000A01B002018490010AC800000B01F0020A5
:1004F00000C00340F0B5C64600B5030A82B0984676
:100500006A46402313706B4642460F4D0F4FC4B2EC
:100510005A709C702A00D9700E0004236946380076
:1005200004F0AEF9482301A90B7043462A004B7032
:1005300038000423360A8C70CE7004F0A1F902B0A2
:1005400080BCB846F0BDC046B01F002000C00340CC
:100550004C2300B583B001A90B70030A4B70002334
:100560008870CB70044A0433044804F089F90520EC
:1005700001F0B4F903B000BDB01F002000C003407B
:10058000F0B5D6464F464646030A9A462823C0B5DC
:1005900082B001AC23705346637000239946E37028
:1005A000104B114E9846C5B232002100042340463C
:1005B000A57004F065F92023F77823705346637023
:1005C0004B463200E37021004046A570043304F02E
:1005D00057F9F0783F02384302B0E0BCBA46B14662
:1005E000A846F0BD00C00340B01F00200278030001
:1005F00000201E2A00D070475A78952A06D0932AE8
:10060000F9D19B780B2BF6D10348F4E79B780F2B9D
:10061000F1D10248EFE7C046344B0010244B0010E4
:1006200000228021034B1A60034B1980034B1A6090
:100630007047C046941B0020D00F0020CC23002020
:10064000F0B5DE4657464E464546E0B585B0002833
:1006500026D0002924DD8025C24BED001E68994676
:10066000AD1B8D4200D9C6E0002D00D0C6E0002EA3
:1006700016D0BD4BBD4C9A46BD4B03AD9B46207872
:10068000202844D03038C3B2452B03D852469B00B3
:10069000D3589F46012E00D0A4E000234A461360A1
:1006A00005B0F0BCBB46B246A946A046F0BD03214A
:1006B00002274942B742F3D8E219013A1378202BB6
:1006C00051D032002021200003F082FF002800D109
:1006D00081E0001B01300027B04205D2371A2118F3
:1006E0003A00200003F0AEFF4B461F6015230122A5
:1006F0002B702900002003F01DFA002003F0DCF924
:100700004B461E68002ECBD020782028BAD1012E6F
:10071000C3D0013E611C4BE0012104274942C9E7D7
:10072000032EBDD9631CA7789C4663783F021F4304
:1007300080237FBAB9B25B004F1D9942BADD013EFA
:1007400032006146200003F07DFF35E011211627BD
:10075000B0E7022103274942ACE701210627A9E7B8
:1007600002210727A6E7C0B2BA1E452806D8830093
:100770005846C3589F46012A00D182E1142302AA99
:1007800013710020012203A903F0D4F9112302AA56
:1007900013710020012203A903F0CCF9002003F01B
:1007A0008BF94B461E68B74200D376E7F61BE1197A
:1007B0003200200003F046FF4B461E605FE7FFF764
:1007C00071FE142302AA13710020012203A903F071
:1007D000B1F91023DBE7771E3A002000611C03F01B
:1007E00031FF81E76349013E3200481E03F02AFFD2
:1007F0004B461E6043E70D1E00D138E75B4C0100FD
:10080000A4192A00200001F0AFFD4B4676191E60A6
:100810002DE7002105274DE7FFF706FE0028ADD0A4
:1008200003AE03220021300001F098FD3000FFF7F5
:10083000A1FD3000FFF7DAFE002804D08389002BE9
:1008400001D04D4A1380142333703100012200205F
:1008500003F070F91023012231003370002003F0FF
:1008600069F9002003F028F99BE7FFF711FEA8E7DC
:10087000142302AA13710020012203A903F05AF9DC
:1008800001239FE70322002103A801F067FD03A8CD
:10089000FFF770FD02ABDE1C142301223100337020
:1008A000002003F047F902AB1B79012231003370BD
:1008B000002003F03FF902AB5B7901223370310075
:1008C000002003F037F902AB9B79BDE7032A00D083
:1008D00054E72021A37862781B021343E2788A430D
:1008E000462A00D04AE75BBA9BB20093013BFF2B3C
:1008F00000D943E7142303AE337031000020453A9A
:1009000003F018F9002398461C4B0193230044463A
:100910009846019B18686310C01880B2FFF730FE3C
:100920000123234200D0000A307001223100002050
:1009300003F000F9009B0134A342EADC10230122FA
:1009400031003370002003F0F5F8002003F0B4F814
:100950000199009B0A6801335B109B1844460B60A9
:100960001FE7C046CC230020444B0010CC1F0020C2
:100970005C4C0010CD1F0020D00F0020941B0020E5
:10098000022A00D8FAE62020A37862781B021343DB
:10099000E2788243462A00D0F0E65BBA9BB28B42F3
:1009A00000D0EBE6404B1B888B4200D2E6E64B10B2
:1009B00000260093221D002B0FD023001400984620
:1009C000637821781B021943B0B2FFF793FD009BB7
:1009D00001360234B342F3D14446344A108816003B
:1009E000FFF7B6FD009933688C4663443360E8E650
:1009F000142302AA137103A90122002003F09AF81C
:100A0000072200202A4903F095F81023BFE6022AA6
:100A100000D0B3E6A378627824491B0213430B602D
:100A2000CFE6042A00D0A9E6002303AE32000393E8
:100A300020490433204803F023FF142302AAD37073
:100A400002ABD91C0122002003F074F8F37802AA4B
:100A5000D37002ABD91C0122002003F06BF81023E5
:100A600002AAD37002AB0122D91C002003F062F865
:100A7000002003F021F894E61423022A00D07EE639
:100A8000A0E6142303AE012233703100002003F0EE
:100A900051F863780022803BDBB2022B01D8074A71
:100AA000D25C3270D1E6C046D00F0020941B0020EB
:100AB000784D0010CD1F002000C00340744D001081
:100AC00000487047E44D001000487047984D0010F2
:100AD00010B5002825D0042827D8154B8000C4580D
:100AE000200003F00FFEC0B2011C1F2814D8C9B2A9
:100AF000002808D000230F4AE05C01331080D8B2F0
:100B000002328142F8D8C0230131C9B20A484900F3
:100B10009B000B43038010BD1F21C9B20028E9D1FF
:100B2000F1E70548054B0360F5E70020F3E7C04611
:100B3000804D0010F6180020F4180020040309046A
:100B4000094A83009A1810B5146840225440803234
:100B50002240064CC000A44663441A60044B9C46E5
:100B60006044416010BDC04604C0014004D0014053
:100B7000004001400123D02283401206936293611A
:100B8000094A83009A1811684022514080320A4075
:100B90000649C0008C4663441A60054B9C460523F9
:100BA000604443607047C04604C0014004D0014027
:100BB000004001408023DB051868000F7047C046E5
:100BC0000FB400B5084883B001F04CFD049B002B26
:100BD00007D005A91800019101F0D4FB034801F0EA
:100BE00041FD012001F0E6FBFC4900100C4A001019
:100BF00070B5EFF3108C72B60D4D2B68002BFCD046
:100C0000BFF35F8F0724CB08C618C05C01230C40DC
:100C1000A3401C000440034207D118433070BFF3C7
:100C20005F8F2C608CF3108870BD1000FFF7C8FF39
:100C30002C0100D0F8B54746CE46884680B5EFF384
:100C4000108C72B6214D2C68002CFCD0BFF35F8F46
:100C50009A422CD8D4080727055D061901241740AD
:100C6000BC402C421FD007210127894609E0D40847
:100C7000055D06194C4639001440A1400C0029427C
:100C800011D001329342F2D201204042BFF35F8F74
:100C900000220E4B1A608CF3108800280FDBC0BCBA
:100CA000B946B046F8BD254310003570EEE7BFF3F6
:100CB0005F8F00232B608CF3108801204042434655
:100CC000002BECD00898FFF77BFFC0462C0100D02A
:100CD000044A1078431CDBB2172B00D91023137081
:100CE0007047C046D20F002010B5064B064C82B0AC
:100CF0000100009318221F232000FFF79BFF02B082
:100D000010BDC046104A0010641B00200021044B97
:100D1000044ABFF35F8F02C39342FAD17047C046C3
:100D2000000100D0800100D0054B064A1360064A3E
:100D3000136053609360D360136153619361704794
:100D40008080808000E400E004E400E01F2318407D
:100D50001E3B8340002905D0C021044A490053505E
:100D600013607047802201498B50FAE700E100E0F0
:100D700070B50D00EFF3108672B60F4A1368002BA2
:100D8000FCD0BFF35F8F0D4B10309B6884001B5964
:100D90000B4A934203D09D4201D001F0BDF8074BAE
:100DA0009B681D51BFF35F8FBFF35F8F0022024B23
:100DB0001A6086F3108870BD240100D000ED00E0B9
:100DC000C1010010F0B557464E46DE464546E0B537
:100DD00085B0060000911700EFF3108B72B66A4AD7
:100DE0001368002BFCD0BFF35F8F0025674B5D5766
:100DF0009A46002D00DAA9E06B00654C01935B195F
:100E00009B009846A146C1444B4652469B791036FA
:100E10001370604BB6009B6899590B1B2F2B33D96D
:100E20005D4B994200D0ACE0019B42469C465B4B37
:100E30006544AD0063535A4B0232A218043B9B1A1F
:100E40001B05584A5B0D651913436B80564B0121F6
:100E5000AB80FF23AB71009BEF71AB604B460B4344
:100E600019004C4B9B689951BFF35F8FBFF35F8FA5
:100E70000022454B1A608BF3108805B0F0BCBB46CE
:100E8000B246A946A046F0BD01200A008243D379AC
:100E90008C46BB4231D84546130044491B1B5B417D
:100EA0005943090D3D4B63533D4B02356519043BD6
:100EB0005B1B1B053B4D5B0D2B43AA464D466B80D0
:100EC0000425AC465546E044131F44441B1B1B0538
:100ED0005B0D1D434B46997100999D809960494671
:100EE000DF71334B01431360BBE75800C01880002B
:100EF0002018C179B9422FD902000623D356002BFE
:100F0000F3DA02932B4B61460393131D9A46042395
:100F10005B429C46E14450464B461B1A1B055B0D49
:100F20009C46204B95719846634640460343938008
:100F3000019B5A199200039BA418A380029B1C4A90
:100F4000A371009B2260E771A3608AE700F0E4FFD1
:100F5000002553465D574FE7908802934005131DC7
:100F60009A46031561469C464046D4446346043085
:100F70002018181AE0230005400D1B0218430390A7
:100F8000C5E700F0C9FF4FE7240100D0E4230020AB
:100F9000D40F002000ED00E0C101001000A1FFFF10
:100FA0000410002000E0FFFF01BDFFFFAAAA00001F
:100FB0000148804701BD0000F0B5DE4657464E4669
:100FC0004546E0B50C0083B0EFF3108872B6634A73
:100FD0001368002BFCD0BFF35F8F614B61499A68A7
:100FE000030010339F00D55900938D4243D0A54292
:100FF00054D05D4EAA1B2F2A3DD85C4B9C461B68E3
:101000009A4601231A0099468240534613401F22F4
:1010100001934B46024093409A46802263465046D5
:101020009850BFF35F8FEFF305839B46002B37D0BB
:10103000009B5B4501D000F06FFF2A004B469A43AE
:101040009068844208D177E04B005B189B00F3184E
:101050009868844236D01A00062151560029F3DAE6
:10106000844255D0019B002B27D0C02251463F4BD4
:101070005200995019603A4B9B68DD51BFF35F8F66
:10108000BFF35F8F0022354B1A6088F3108803B0DE
:10109000F0BCBB46B246A946A046F0BD0D00EAE74B
:1010A0002A004B469A4390688442D5D106201056B8
:1010B000130000280ADA0D0032E0802351462B4A43
:1010C000D150D8E706201856002822DB420011181C
:1010D000890074188946A1689960E179D97106215F
:1010E00061569971002925DBA488F11A640524153D
:1010F0004C440919E0240905490D24022143998033
:1011000013181B4A9B001178F31899711070A9E706
:1011100013005946002914D1FF319171154991806E
:1011200013490A789A71144A9B1B5B415A43120D6A
:101130000A7097E71149E2E70620105613000028CD
:10114000C4DA0F4A0F49D21A083A5002400D01433F
:1011500099800D4952080A43DA8083E7240100D0C0
:1011600000ED00E0C1010010D40F002000E100E01C
:10117000E423002001BDFFFFAAAA000001BD00007A
:101180000E10002000F0FFFF00F8FFFF70B50124F3
:101190000443EFF30581EFF3108C72B6214A136814
:1011A000002BFCD0BFF35F8F1F4B05001F4AED1AC9
:1011B0006D416A43120D1E4D8900AE6852B27658D9
:1011C000A6421CD00621595691421CD012215956D4
:1011D000914222D01E215956914220D02A2159569F
:1011E0000324914210D0134B19781A708171BFF308
:1011F0005F8F00220B4B1A608CF3108870BDAB68B8
:101200000D4C5C50EFE700246100091989005B1860
:10121000FF21997109499980E5E70124F4E7022447
:10122000F2E7C046240100D0D40F0020AAAA000093
:1012300000ED00E0E4230020C101001001BDFFFF2C
:10124000024B9C46614489000160704740000034B5
:1012500070B5114C114DAC420FD2FF262368002B04
:101260000CD0FFF735FD01002000FFF7E9FFA68055
:10127000BFF35F8F0834AC42F0D370BDFFF728FD99
:1012800001002000FFF7DCFF2671BFF35F8F0834F9
:10129000AC42E3D3F1E7C04698100020A010002034
:1012A00010B50400FFF714FD01002000FFF7C8FF90
:1012B000FF232371BFF35F8F10BDC04610B504003C
:1012C0000120FFF711FD034BC3189B002360BFF300
:1012D0005F8F10BD400000340A4B1968EFF3108097
:1012E00072B60A68002AFCD0BFF35F8F1B68BFF399
:1012F0005F8F00221A6080F3108840BF0020002119
:101300007047C046D4230020F0B5DE4657464E460F
:101310004546E0B583B0EFF3058203231340B54A99
:10132000990052580091904601229A409346B24B40
:101330001A60B24B01935B46B148436343460822AF
:101340009B5E9946002B3ADA43469B881BB2002BE2
:1013500000DB9DE043469B79002B00D0E1E0434653
:1013600008241C5F002C20DB43465A6963001B19CC
:10137000DB00D3189D68DC686B1C00D103E1A0483A
:10138000009984466144826A0B69AE1A9B1A9E4298
:1013900013D35A46036A1A420FD0994800F040FB13
:1013A0008C4202DCC7D18542C5D940BF03B0F0BC36
:1013B000BB46B246A946A046F0BD0D61EDE74246E8
:1013C00052695B0092464B44DB009A4453469E6848
:1013D000DF6800F025FB8F42B6DC00D1F8E0002F7B
:1013E00000DAD9E05246534654691B69019A934288
:1013F00000D1CCE0414652460820085E52880004E5
:1014000021001043984704000D0023002B4300D116
:10141000C2E0002D00DBDFE030003900001BA941F5
:1014200053469860D96000229A5E002A00DA8BE762
:1014300043465D6953009C18E4002C19A768E468D2
:101440008C4200DD80E702D1874200D97CE7464626
:10145000328108360DE08C4200D1C6E01E00002328
:10146000F25E002A0ADB53009C18E4002C19A768DE
:10147000E4689B18DB00EB188C42ECDD53461A80C5
:101480004B46338043469B881BB2002B00DA61E752
:1014900043461A69EFF3108172B61368002BFCD033
:1014A000BFF35F8F43469E88012342465B42938091
:1014B00036B21369BFF35F8F00221A6081F3108880
:1014C000002E00DA46E743465D69083342469C46F3
:1014D0007700BF19FF00EF19BB68604698460823E4
:1014E000D15E9246FC68002907DA0EE0A24246D09F
:1014F00018000023C15E002906DB4B005B18DB00EF
:10150000EB18DA68A242F1DD524606800023FE5E47
:101510003980002EDCDA904643469B79002B00D1BF
:101520001DE7002342469371434646460821595E13
:1015300008364B1C00D138E747468946556902E01A
:1015400006004B1C18D04B005B18DB00E8180A00A3
:101550008C46E95E43881BB2002BF1DA01235B4223
:10156000DC178360C4604A4503D031803B89038027
:101570003A81E1464B1CE6D1B8464C46F2E69A6801
:101580004245B5D9C0E7631C00D0F8E605E7200066
:1015900023699847002825D1534642461B8813816A
:1015A0001269EFF3108372B611680029FCD0BFF303
:1015B0005F8F4246514652880A80424649465180D2
:1015C0001269BFF35F8F0021116083F31088BBE6BF
:1015D000864200D803E7B7E6094800F021FA00196F
:1015E00069411DE7656824680FE7874200D835E741
:1015F00044E7C046B41F00203C70054009130010AA
:101600000040054070B52E4C2569002D04D00A21FC
:101610002C48FFF715FE70BD2B4E0321300000F063
:10162000F5F9E660FFF754FB284B03229C46D023D4
:1016300022701B061B6801216370254B6044A36068
:101640000F23800020610220638063694942A180EA
:1016500019800231198647311D83585218315A5268
:1016600075325C3999521832013199521832013170
:101670009952183201319952083518329D5202316F
:101680001832995218320131995218320131995257
:101690001832013199521832013199521832013100
:1016A00099520C4B0C49DC6001303562FFF760FB4E
:1016B00001210320FFF74AFB084B1D60A7E7C04646
:1016C0001C100020D42300200040054040000034BE
:1016D000FFFF1000B41F0020091300103860054000
:1016E00070B501000469EFF3108C72B62068002811
:1016F000FCD0BFF35F8F02200D5E4C69680040197B
:10170000C0002418002D37DB208848800869BFF30B
:101710005F8F002606608CF31088E360638804986E
:10172000013320615B0405985B0CA26060611A1CA8
:10173000002B1FD093B22804628018430A69EFF38C
:10174000108C72B61368002BFCD0BFF35F8F8B88B0
:1017500023808D800B69BFF35F8F00221A608CF3AA
:1017600010880B7801329A40CB6808498C46634454
:101770001A6070BD0122DDE70B69BFF35F8F0022A5
:101780001A608CF3108801204042F2E73C200000F0
:1017900010B543890A1493421ADD53009B1842691D
:1017A000DB00D3180469EFF3108C72B62268002AAC
:1017B000FCD0BFF35F8F5A88090494B2090C8A42A7
:1017C00008D00369BFF35F8F00221A608CF3108882
:1017D000002010BD8022120214435C8001230269A4
:1017E0008371BFF35F8F002111608CF3108804496F
:1017F00002788C469340C268012062441360E8E797
:101800003C200000F0B504000D0006267642F717D4
:10181000C64636196F4100B582B08F4214D811D038
:1018200000F006F932003B00121A8B41002B17DC46
:10183000002B47D02000290000F038F902B080BC0E
:10184000B846F0BD8642EBD90022002316001F00E7
:1018500000F0EEF832003B00121A8B41002BE7DD5E
:1018600000F0E6F832003B00121A8B41002B0ADB35
:1018700000230193154B3200009315483B00FFF7FE
:101880002FFF0028D6DB00239C46B046114A124E9B
:10189000736A9F4204D8B16A8845CBD99F42C9D1A7
:1018A0001168EFF3108072B60B68002BFCD0BFF309
:1018B0005F8F1368BFF35F8F6146196080F31088F4
:1018C00020BFE5E7002AB5D0CAE7C046D91200100C
:1018D0001C100020D42300200040054070B50600F5
:1018E00000F0A6F8FA2204000D00002330000021C9
:1018F000920000F0C9FC8023001969411B0699423F
:1019000002D3012002494042FFF77CFF70BDC04670
:10191000FFFFFF7FF0B5D6464F464646C0B50400F0
:101920000D0082B0EFF305878946002F0ED03449B1
:1019300000204B6AAB4203D38A6A0130A24226D30D
:1019400002B0E0BCBA46B146A846F0BD2D4B984661
:10195000DB689A46434650461E7800F061F80B005B
:10196000514602000436B600715820008E1A290034
:10197000801A99418F4211DC0ED020BF204A0020EE
:10198000536A4B45DCD3926A0130A242D8D25B1B2A
:101990005A1E9341D8B2D3E78642EED900F048F8F8
:1019A00022002B00121A8B41002B1ADB002301931B
:1019B000154B2200009340462B00FFF791FE011EBD
:1019C0000FDD0F4B5A6A4A4517D39B6AA34212D3C5
:1019D0004046FFF7DDFE0A4A0020536A4B45AFD36D
:1019E000D1E7074A0020536A4B45A9D3926A0120E8
:1019F000A242A5D2CBE74A45EAD120BFE8E7C046DC
:101A0000004005401C100020D912001010B5024AF9
:101A10000248FFF7EDF810BD2C4A0010681B0020AB
:101A20000300416A0A00986A596A8A42FAD17047EB
:101A3000034B596A0A00986A596A9142FAD1704771
:101A40000040054070B504000D00174A536A1900A4
:101A5000966A536A8B42FAD13000190024184D411E
:101A6000AB4216D813D0104A2B00526A954203D9C4
:101A70000D494A6A9A42FCD39A4207D10A4A02E0C7
:101A8000516A994202D1916AA142F9D370BDA6422E
:101A9000E9D9054B5B6A1C005A1CEFD001230124D5
:101AA0006442E5175B42E3E700400540064A536A9B
:101AB0009942FCD807D1044B02E05A6A914202D104
:101AC0009A6A8242F9D3704700400540F8B5040095
:101AD00006200D0000F078F9002844D0374B384933
:101AE000E3185A1E93418022120494465B429B0DD8
:101AF000344A9B0563441360334A136018000A6834
:101B00009043FBD12D4B314AE31859424B41802180
:101B10005B0049000620995200F056F92900C000E8
:101B200000F024FB0130C3091ED14027012262626C
:101B3000A362266BF30722D4E36A254B0620E5183F
:101B400000232B60266300F03FF93900800000F08D
:101B50000DFB7023E26A5A400E3313402B601D4B7D
:101B600023630323A364F8BD1B4A93421ED90023B9
:101B70001A4A1B4F6262A362266BF307DCD5194B2E
:101B8000144AE3181A60656AA36A0620AD01ED18CD
:101B900000F01AF9144900F0E9FAAD02010028003A
:101BA00000F0E4FA0021FFF74DFFC5E74006800E84
:101BB0009F011A003F180300B9E7C0460080FCBF30
:101BC00008C0004000E0004000F00040D8230020A2
:101BD0002C10000001030000FEFF0000FFFF0000CA
:101BE000C0FF3F00303000004E0E0000F8B5DE466A
:101BF0004E4657464546E0B58B4605000A99180003
:101C0000160000F0B3FA0A9B6C001F02324B6419F5
:101C10009C46A4006444636881469F4200D9676083
:101C20002B1FDBB29846012B30D9C02380229B01A9
:101C3000E31812011A60294BAD0059599A46002940
:101C40001BD17301E026226853401E408023424688
:101C50005B01E3181E60012A30D9802380229B019A
:101C6000E31812011A6053464A4667605A51F0BCA5
:101C7000BB46B246A946A046F8BD586900F076FAC0
:101C8000013043001B18033BFDD2DAE75B46012B12
:101C9000CBD1C02303229B01E3181A60023AA36848
:101CA0001A42FCD07301E0262268AD0053401E406A
:101CB00080230A4A5B019246E3181E605A46216857
:101CC000514003220A401A6001225B469A40A368F1
:101CD0001A42FCD0C1E7C046008000406C1B0020C7
:101CE000F0B546464F46D646C0B51F00344B4400BB
:101CF0009C462418A4006444636888461600FF2BA1
:101D000002D880235B006360031FDBB29A46012B7D
:101D100030D9C02380229B01E31812011A60294B9D
:101D200085005959994600291BD17301E026226884
:101D300053401E40802352465B01E3181E60012A77
:101D400030D9802380229B01E31812011A6080237E
:101D50005B0063604B465F51E0BCBA46B146A846A3
:101D6000F0BD586900F002FA013043001B18033B34
:101D7000FDD2DAE74346012BCBD1C02303229B01DE
:101D8000E3181A60023AA3681A42FCD07301E026F5
:101D90002268850053401E4080230A4A5B01914619
:101DA000E3181E6042462168514003220A401A602F
:101DB000012342469340A2681342FCD0C1E7C046CB
:101DC000008000406C1B0020014B8000C058704711
:101DD0006C1B0020F8B5040021481E0017000D0000
:101DE00000F0C4F90100380000F0C0F9069B360489
:101DF0001B031E432368002B20DB1A4B1A49E318F0
:101E00005A1E93418022920194465B421B0B174A53
:101E10001B0363441360164A13601F000A6897434C
:101E2000FBD1144B2560E2182123A06013602368C6
:101E3000002BFCDA0823E6601360F8BD3F2322681C
:101E40001340AB42D9D1A3681B051B0D8342D4D1EB
:101E5000EE22E368D2021340B342CED1EDE7C04692
:101E6000001BB7000040FDBF08C0004000E000407C
:101E700000F00040043000008023024A9B000B4326
:101E8000D362704700800540142310B50100188804
:101E900004331B88984710BD162310B5010018881D
:101EA00002331B88984710BDF8B54746CE4680B52B
:101EB0000F1E19D01423994604330400002501266F
:101EC00098464B461888434621681B88984701C4AA
:101ED000431E9841013540420640AF42F1D13000E7
:101EE000C0BCB946B046F8BD0126F8E7AA23064AA9
:101EF0001B0113608D235B00D3600449044B196000
:101F00005368002BFCDA70470040024000B0FA0032
:101F1000006002407047C04610B50148FEF750FE11
:101F2000504A001070B5074D074EB54209D2002443
:101F3000013E761BB60808CD984723000134B34212
:101F4000F9D170BDD04800100C490010054B064A6D
:101F500006491A60064A074B1A6010000B6898433E
:101F6000FBD1704700E00040BFCDFBFE08C0004041
:101F7000FE7F3C0000F00040044BDB6C002B03D1E3
:101F80008022034BD2021A607047C04600001150F5
:101F90004C201150044A054B1A60054A1368DB01B6
:101FA0008033FBD17047C046FFFFFF0100F00040C7
:101FB00008C000404022034B9A675A671A67DA66E6
:101FC0007047C04600F0014010B5FEF79FFE10BDFF
:101FD000F8B52749274C284D641AA6103200302E38
:101FE00000D930222800920000F0BEF9BC2C3BD86A
:101FF00030202F232C196407204A801BE40F9B1BE1
:10200000052B16D93700002C02D0B300771CEA50FC
:10201000001B33199B004108EB18C900C9181A604E
:102020005A6008339942FAD1012303421CD09843E5
:10203000C619B300EA50731C2F2E15D09B00EA502E
:10204000B31C2E2E10D09B00EA50F31C2D2E0BD06B
:102050009B00EA50331D2C2E06D09B00EA50731DC6
:102060002B2E01D09B00EA50054B9D60F8BDC04669
:1020700000010010C001001000000020C10100108C
:1020800000ED00E0002310B5294C82B0A367FFF7F4
:102090002DFF0122274B1A60636C012BFCD1032218
:1020A000254B1A60224A936B012BFCD1013300931C
:1020B0000121224A22480433FFF78CFE0523012127
:1020C0000093204A2048FFF785FE002202210420C9
:1020D0001E4BFFF705FE0022012105201C4BFFF7D8
:1020E000FFFD0022002107201A4BFFF7F9FD002217
:1020F00000210820174BFFF7F3FD8023DB0000933E
:10210000002200210920134BFFF770FD0022104B25
:1021100000210620FFF7E4FD0420FFF755FE0E49DD
:1021200000F024F801000020FFF7A6FE02B010BD69
:10213000008000403CB0004030B00040002F6859A3
:1021400000800240008C864700C00240001BB700A0
:1021500040597307006CDC0240420F000148042123
:10216000014B184740100020A91E0010114A936F20
:102170009B0813D210665166002905D0FFE7FFE7E0
:10218000FFE7516F106F704704B5002801D00020A1
:10219000C04302F05DFB002104BDC046F0B5146EE3
:1021A000556E576F166FFFF7E5FF14665566576754
:1021B0001667F0BD000000D0132370B51D78012D07
:1021C00019D014DD1F48FFF767FE06001E48FFF711
:1021D00063FE1E4C80223100200000F0C5F8022D65
:1021E0002DD01B48FFF750FE1A4B186070BD1A4BDC
:1021F000164CA364F5E7184B144C23606360A3608E
:10220000E36023616361A361E36123626362A362AC
:10221000E36223636363A363E36323646364A3648C
:10222000E36423656365A365E36523666366A3666C
:10223000E36623676367A367E367A364D1E7064B9D
:10224000A364CEE753440000534600002012002050
:102250004C330000D02300205D22001007B56046FB
:1022600001880A0A0230DF2AFAD1C9B2820804D3EF
:10227000028840880004104300E00068014A505082
:10228000039007BD2012002051434343C9188C46D8
:10229000110C83B24B4310B4040C614392B280B270
:1022A000504362431C041B0C001910BC5941130419
:1022B000120CC0185141614470470000132310B53F
:1022C00012481C78FFF7E8FD0100012C0AD003DD5D
:1022D00080220F4800F048F80E48FFF7D5FD0E4B5E
:1022E000186010BD0A4C5422200000F03DF80B4B42
:1022F0006365A365E36523666366A366E366236798
:102300006367A367E3672362E361E5E75346000081
:10231000201300204C330000D02300202123001084
:1023200007B5604601880A0A0230DF2AFAD1C9B22D
:10233000820804D3028840880004104300E000684B
:10234000014A5050039007BD20130020014804218A
:10235000014B184750100020A91E0010014B1B68AC
:102360001847000050100020014B5B681847000020
:102370005010002010B5002800D110BD00F026F943
:10238000FBE7C04610B5094A0300146884B0002C6E
:1023900008D0012200910648524203A9A04701201B
:1023A00004B010BD00F05EF90020F9E7A81F00207E
:1023B0007523001000BEFDE710B5FFF7FBFFC04618
:1023C00070B5FFF7AFFD074D074EB54209D20024A7
:1023D000013E761BB60808CD984723000134B3426E
:1023E000F9D170BD0C49001018490010030010B558
:1023F000080011001B68984710BDC046F0B5C646DE
:1024000000B5437D07000D001600002B38D0002AD0
:102410002EDD00216A1E90466A5C037D4C1C002064
:102420000A2A0CD0A64216D043461B5D21000D3B64
:102430005A4253416A5CDBB24C1C0A2AF2D1002B8F
:10244000F0D1884217DB022110483B689847A6422A
:1024500007D02000E8E7864203DD311A3B682818E0
:102460009847AD19013D2B780D3B5A4253413B75BE
:1024700080BCB846F0BD091A3B6828189847E2E7C7
:102480000368110028009847F2E7C0464C4E001040
:10249000F0B5DE4657464E464546E0B585B01700D6
:1024A0001C0006000D00FFF7C3FA0023314A121882
:1024B0004B41802109068B4202D301222E4B52420E
:1024C0002E4908008A4602F0E3F901906B1C03D103
:1024D000300002F017F90500002C26D0284B984652
:1024E000284B1C68002C15D0002F21D1264F02E06C
:1024F0002469002C0ED02368002BF9D03B68002BF8
:1025000001D09C42F4D120002A003100C047246948
:10251000002CF0D1019B002B28D1280005B0F0BC85
:10252000BB46B246A946A046F0BD184B9846D7E731
:10253000154B994602ABDF1D0A239B4602E0246936
:10254000002CE7D02368002BF9D04B461B68002BEA
:1025500001D0A342F3D12A0031002000C0475B46DE
:102560000122390020003B70C047E8E7504602F0E6
:102570005FF9D2E740420F00FFFFFF7F9810002075
:10258000FD230010981B0020A41B0020ED23001049
:102590000A4A1368002B05D10CE01A001B6910329F
:1025A000002B07D09842F8D1002902D103691360AB
:1025B000016170470029FCD01060FAE7981B0020E9
:1025C00010B500F03BF9012010BDC046F0B5CE4675
:1025D000474680B583B06B460600DD1D2870FFF7C7
:1025E00027FA00231A4A12184B41802109068B4210
:1025F00002D30122174B524217490800884602F0C5
:1026000047F9164B81461C68002C14D0144F02E089
:102610002469002C0FD02368002BF9D03B68002BD5
:1026200001D09C42F4D1200001222900FFF7E6FEF0
:102630002469002CEFD14B46002B05D1300003B0AC
:10264000C0BCB946B046F0BD404602F0F1F8F5E72F
:1026500040420F00FFFFFF7F98100020981B0020D2
:10266000A41B002070B5040002F04CF80123010007
:10267000050001222000FFF70BFF084B1C68002C0F
:1026800006D06368002B05D098472469002CF8D148
:10269000280070BD2469002CF3D1F9E7981B0020B5
:1026A000F0B5002915DD0E4B0D271A680D4B0E4CA9
:1026B000D3185D426B41451820215B001E5F0478F2
:1026C000A64207D093691942FCD101301460A84298
:1026D000F5D1F0BD93691942FCD11760F2E7C0460D
:1026E000DC2300200080FCBFD8230020204B70B5E5
:1026F00004000D1E1E682ADD002010211D4B013C28
:102700001A689369194214D1013093691942FCD1B6
:10271000136823548542F4D1002E08D050239363CC
:10272000516B183B0B4014498C46624413602800DF
:102730000CE0002E08D050239363516B183B0B40E4
:102740000D498C466244136000280DD070BD002EE8
:102750000AD05022074B1B689A63596B183A0A40FB
:1027600005498C4663441A6003204042EEE7C046A8
:102770005C1B0020DC23002034100000064B10B549
:102780001B68002B06D00021044A12689163044A9A
:102790001068984710BDC0465C1B0020DC23002059
:1027A000601B00200822034B19688B691A42FCD178
:1027B0007047C046DC230020F8B51A4F1A4B3A6820
:1027C0000500D31858424341184E14331C00336897
:1027D000002D02D0002B0FD0F8BD002BFCD0002123
:1027E00020009563FEF7B2FA20001149FEF7E4FBE2
:1027F000104B35601D60EFE70E4B200019600C494F
:102800003560FEF7B5FA01212000FEF79FFA50224D
:102810003B689A63596B183A0A4007498C466344EF
:102820001A60D9E7DC2300200080FCBF5C1B00207D
:102830007D270010601B0020341000000D4B10B5E8
:102840001B780D4B0D4C1B780D4B02211B780D4B4B
:1028500000202360FEF774F902210120FEF770F9D1
:10286000E12120684902FFF731F901210648FFF70D
:102870008FFE10BD744F0010704F0010DC2300203D
:102880006C4F00100040034060100020484B0200D5
:102890009C466244531E9A418023F0B54E46DE4664
:1028A000574645465B029C46E0B5424B12046244E3
:1028B00085B002901A60404B0E0040491A6010002B
:1028C0000B689843FBD10620FFF77EFA022302999A
:1028D00004008C464A6801901A4003920A1D9046F3
:1028E000374AF10D624491461360700200295AD1B3
:1028F000A04258D8802464000227A246B446B30DF3
:10290000B20204E0019E96420AD322002B00023755
:10291000574505D004000D00A4185D41002BF1D0EF
:102920006646019B80259A46B3463C02E41B6D0037
:102930002E00013D002D38D021005046FFF716FC37
:10294000E41B8345F4D2310079432D02029CFF221F
:102950008026A4462761236812026B4076016644F4
:10296000134033608023039A9B0143441A604D4611
:102970000222072760682A60256810406F40CF2533
:102980003D40356018600F48844603206444206051
:1029900001981A60FFF7EAFB05B0F0BCBB46B246EF
:1029A000A946A046F0BD0227BBE73900CEE7C046E6
:1029B0000040FCBF00E0004000F0004008C00040C4
:1029C0000430000024200000F8B500F043F90C2387
:1029D000194DFF22AB6705201849FEF7F3F9184C93
:1029E000402200212000FFF7B9FC402700230126E8
:1029F0002121144A66702783A260136063545F31FB
:102A0000618445396354104A10496360E260278746
:102A1000A1620B606362E26201F04AFF80239B05C2
:102A20002E64EB6490230A4A0120EA508022094B6D
:102A30005202DA64F8BDC046000011509103002034
:102A4000A81B00208400105000011050800010507E
:102A500010D001000020115010B501210520FEF713
:102A600075F910BD10B500220021024800F012F9DE
:102A700010BDC046C81B0020044B1970002904D0AB
:102A800080219023024A8902D1507047E12300201F
:102A9000002011500B785B0602D14B78052B00D03B
:102AA00070478A78014B1A60FAE7C046000011505F
:102AB000F0B5C646C87800B58007830F1800012B13
:102AC00060D08F780A794B797F213940FC091B024D
:102AD0004E001343334D32195201AA189770012743
:102AE0006740577000275B055B0DD7701383D07666
:102AF000B846CA00012C32D02B4FBC468F0162442D
:102B0000BC46AC446746BA6047461760002932D0DD
:102B1000264AC90090466246414451603F223F33F5
:102B20009343022837D0224937190A687F01D31806
:102B30000B602049EF19FA608B422ED836197601C6
:102B4000AD19EB7E1C499B064A40134380221206B6
:102B500013436A681360012080BCB846F0BD174F6C
:102B6000BC468F016244BC46AC446746BA624746E5
:102B70001760002908D1002364012C196360104BF1
:102B8000E360E8E70020E7E70B4AC90090466246A9
:102B900041445162C2E75B00C5E7FFF7BDF9FA683F
:102BA000CCE7C046A81B0020840010500400105041
:102BB000AC1F0020FF0F105000001050800010507C
:102BC0000001105010B501F073FE10BD10B57F204C
:102BD0000C0020404000E409110000191A00034BCA
:102BE0004001C01800F056F8012010BDA81B0020BD
:102BF0007F23180010B50840CA090B4203D10749CA
:102C00007D3B9B1A8B66400080188022044B40015C
:102C10000021C018120101F053FE10BD0020115018
:102C2000A81B00207F22130010B50B400A4200D1E0
:102C300010BDC9095B005B1804485B01C018002384
:102C400000220349C37001F03BFEF1E7A81B0020FE
:102C5000FFF7FFFF80220A4B520410B51A60094BA0
:102C600009491A6010000B689843FBD180220021AB
:102C700052010648FFF772FB0922054B5A6710BD47
:102C800000E0004000F0004008C00040000010508C
:102C900000001150002310B5C38201338282837675
:102CA0000161040001F0CCFD002804D080219023B4
:102CB000074A8902D150200001F0D2FD002802D03D
:102CC0000123237710BD200001F0EAFDFAE7C0469A
:102CD00000201150002070477047C0467047C04622
:102CE0000020704700207047002070477047C046A2
:102CF0007047C0467047C0467047C046024B587880
:102D0000431E9841C0B2704740190020024B18780A
:102D10004007C00F7047C04640190020F0B5D646A6
:102D20004F464646C0B52F4B07009A461B780E000B
:102D3000FF2B01D0012041E000293ED00021542288
:102D40002948FFF70BFB0022284C294B20001A7062
:102D5000FEF7A6FA274B1C60274C2000143CFEF718
:102D6000ADFA200001F0CAFB244B254D1C60254B19
:102D7000002B28D0280000E000BF234B18602B78E0
:102D8000224A00249146204A90460EE043461B68A2
:102D900062019B18002B10D05B68002B0DD0984768
:102DA00001342B78E4B2A3420FD3A342EED8E31A46
:102DB0005B014B445B68002BF1D10020E0BCBA46BC
:102DC000B146A846F0BD2B78DAE75346310038000B
:102DD0001F70FFF7F9FD0028EFD03800FFF73CFE29
:102DE0000120EBE794100020401900203819002042
:102DF000E2230020941900208C1000209819002054
:102E0000E023002000000000D0150020144F001027
:102E1000F0B5DE4657464E464546E0B5C94B91B043
:102E200003931B78FF2B00D145E1C74BC74E9B4650
:102E30005F46C74B0DAC0293C64B019335686A6978
:102E4000EFF3108172B61368002BFCD0BFF35F8FD5
:102E5000A9612800210001F07FF96A69AB69BFF31D
:102E60005F8F0021116083F31088002800D122E1D8
:102E70006378082BE2D89B00FB589F466368002BC1
:102E8000DCD0A0689847D9E77F222179B04D0A406D
:102E90005300EB189846C80980444046012330305F
:102EA00005799D430571057903339D430571002A1A
:102EB00000D107E14346A84A1B7D1278934200D314
:102EC000F7E0A64A5B011568ED18002D00D1F2E08D
:102ED000A36862792078AD69A847AFE7A04A137864
:102EE000002B00D1E7E01378013BDBB213701378BD
:102EF000002BA3D10122964D01212B7804201343EE
:102F00002B703423EA5C8A43EA54EA5C8243EA5435
:102F10000133EA5C8A43EA54EA5C8243EA54237848
:102F200000209B4600F08CFC602223791A40602A26
:102F300000D1F2E0402A00D1F8E0DB06DB0E012BE5
:102F400000D115E1022B00D1CBE0002B00D0E4E052
:102F5000202A00D10FE2002A00D0DEE06379092B9D
:102F600000D9DAE07F4A9B00D3589F46784D2B78F2
:102F7000DB0700D462E7FFF7BFFE5FE7029BDB7869
:102F8000DB0700D45AE76068FFF7A8FE56E7704DEC
:102F90002B78DB0700D451E728780007C00FFFF734
:102FA000A9FE4BE723786B4A994693466A4B6B4AD6
:102FB000984692463A00002547461B78B0464E4652
:102FC00091460EE053461B686A019B18002B00D106
:102FD0007EE0DB683000984701353B78EDB2AB42CC
:102FE0000CD3AB42EED8EB1A5B015B44DB683000DC
:102FF000984701353B78EDB2AB42F2D2544D5422A2
:1030000000212800FFF7AAF91022FF21281DFFF751
:10301000A5F928002022FF21143046464F46FFF72D
:103020009DF900F003FC2379AB7007E723784B4A46
:103030009946494B924698463200BB464E4600257B
:10304000474691461B780DE053461B686A019B1862
:10305000002B41D0DB683000984701353B78EDB25A
:10306000AB420ED39D42EFD3019AEB1A94465B011B
:103070006344DB683000984701353B78EDB2AB42E2
:10308000F0D2029D542200212800FFF767F9102298
:10309000FF213548FFF762F928002022FF21143074
:1030A0004E465F46FFF75AF900F0C0FBFFF720FEDF
:1030B000C4E6934213D011B0F0BCBB46B246A94659
:1030C000A046F0BDA3686279207800F0CDFBB5E69C
:1030D00046464F461E4DA4E74E465F46E4E71D4D6B
:1030E000F6E67023217A0B4217D1C80982460F33C6
:1030F0000B405B0098461848EB1853441B7D007842
:10310000834260D215485B01006881469944002AD9
:1031100000D14FE14B46002B5DD120780021FFF715
:1031200067FD80212078FFF763FD87E60F4800F0F8
:1031300087FB012158460EAAFFF7CCFD002800D0DE
:103140007CE6EAE7941000206C4E001098190020ED
:1031500040190020144F0010E0230020D01500205B
:10316000E2230020904E001044190020D52C0010BE
:10317000237A0F2BD1D8D64AEB181B7912789342B9
:1031800034D3CAD1D34D686900F05AFB01215846A7
:103190006B690EAA9847002800D04FE66022150000
:1031A00023791D401A42B8D163790A3B012BB4D868
:1031B00000F046FB63790A2B00D17FE158460EA947
:1031C00000F0C8FA3AE6834200D0EEE0C14B9946DF
:1031D000002A00D1EEE04B46586900F031FB4B4627
:1031E000012158465B690EAA9847A7E7BA4A5B01D6
:1031F0001568ED18002DC6D18FE7A37999466B7835
:103200009945DBD06B78002B00D02AE14B466B70E0
:10321000002B00D122E148460138C0B2FDF754FC32
:10322000002800D174E143780793022B00D06FE1AE
:103230000122C179B1468B11491113400A40302156
:1032400012015B0113432A78A8468A4313432B706B
:1032500009239A4682445646BA46C37882781B02AE
:103260001343C31805939A4B04939A4B08939A4BB4
:1032700009939A4B0A93059BB34200D84BE17378AC
:1032800001220B2B03D13378F278F6187378042BD4
:1032900000D03AE1059B00279B1B9BB20693049B41
:1032A0000B921D7819E0099A7B011568ED18002D25
:1032B00000D12AE1310058462B69069A9847844686
:1032C000082803D9069A824200D30BE1049B0137F8
:1032D0001D78FFB2BD4200D217E1AF42E3D3089B95
:1032E0007D1B9C466D016544E4E76B780CAA0232B5
:1032F0001370584601230EA900F042FA9EE5E388B8
:103300001A0AD8B20F2A00D907E775499300CB589B
:103310009F460EA800F09AFA5846A179FFF7A2FB43
:1033200002222B7813432B7088E5E388012B00D011
:10333000F3E608222B78584693430EA92B7000F031
:1033400009FA7BE5022029780CAB9A1C8B068908C8
:10335000DB0F01400B431380584602230EA900F0F7
:103360000FFA6BE5E388012B00D0D6E608222B7814
:1033700013432B7022E7237A0F2B00D9CDE6544A52
:10338000EB181B791278934228D2534A5B011568D7
:10339000ED18002D00D1C0E6686900F051FA012156
:1033A00058466B690EAA9847C8E6002A00D0B4E6D2
:1033B0000023994662790220130004928343012B73
:1033C00011D0002A00D0A8E62B00434453443033E8
:1033D0001B790CAA9B07DB0F0232BCE7934200D09B
:1033E0009BE63C4DD8E7E388002B12D1039B18786D
:1033F000049B012B23D0FFF7FBFB43460221EB1874
:10340000534430331A790A4301211A711A790A4355
:103410001A714B46002B00D110E5586900F010FAE4
:103420004B4601215B690EAA58469847002000F0E0
:1034300007FA3523EB5CDB0700D5FFE4BEE6FFF7B8
:10344000F1FB43460221EB18534430331A798A4387
:103450001A711A7904998A431A71DAE7FFF748FC5E
:10346000ACE600215846FFF707FB5846FFF7AAFBDA
:1034700000229246174AAB780592174A04930692A7
:103480002A00134B5546984692461B780EE0069B41
:103490006A011B689B18002B56D0DB68584698477A
:1034A000434601351B78EDB2AB4239D3AB42EED87F
:1034B000059AEB1A94465B016344EEE70CAB9A1C49
:1034C000584601230EA9157000F05AF9B6E4C0461B
:1034D000E0230020144F0010D015002054190020C4
:1034E000B84E00100B9A012A4DD0002A3CD0002380
:1034F000B07804E00133DBB20F71934234D2C118CB
:10350000C9B241440D79FF2DF4D04E464546574689
:1035100000236B7001E64E465746FFF7E7FB4DE68A
:103520005546542200212800FEF718FF1022FF21E3
:10353000281DFEF713FF28002022FF211430FEF77C
:103540000DFF049BAB7061E65546FAE7FFF7C8FB39
:10355000021E00D1E1E5D37891781B020B43584657
:103560000EA900F00DF9E9E565463B0031002A009F
:103570000A9800F06DFDAC46049B66441B78BB4284
:1035800000D378E6C1E7174B29699942AFD1079A72
:10359000ADE7FFF7A7FB021E00D1BEE55846137842
:1035A0000EA900F0EDF8C9E52189FDF791FA021E98
:1035B000F4D1B2E5022A0FD0FFF796FB021ECAD162
:1035C000ABE5FDF77DFA021E00D1A6E512235846B1
:1035D0000EA900F0D5F8B1E5FDF776FA021EBAD1D2
:1035E0009BE5C046753C0010F8B557464E46DE4692
:1035F00045460C00E0B516001F00002A3CD01F4BCA
:1036000000259A46702399461D4B9B4617E05B4662
:103610002000997800F0DEFC00281FD021004046F1
:10362000FFF746FA002819D0A378DA09012A1CD03E
:103630000A9A013513702378E418B5421CDA6378CE
:10364000052B0BD1E3789B079B0FBB4206D153465A
:103650004A461B789846A3781A42D8D00020F0BC7E
:10366000BB46B246A946A046F8BD0B9A0135137079
:103670002378E418B542E2DB0120F0E79410002043
:1036800040190020702270B5094B0C001D788B7812
:103690001A4201D0002070BD064B2000997800F03E
:1036A00099FC0028F6D021002800FFF701FAF2E784
:1036B00094100020401900200B007F2010B5184006
:1036C000DB0934334000044AC018044B1168C018A9
:1036D00000F03CFC10BDC0469419002040190020A9
:1036E0000B007F2010B51840DB0934334000044A3A
:1036F000C018044B1168C01800F050FC10BDC04643
:10370000941900204019002070B57F240F480C4008
:1037100064000419CD09641930342079C00701D53B
:10372000002070BD012625790948354300782571B0
:10373000FFF74CFA0028F4D1012223799343237137
:103740002379033293432371EAE7C04640190020EE
:103750009410002070B5094C0600082220000D00CE
:10376000FEF702FE00238021E360A3602B78300087
:10377000994300220023FFF7C7FF70BDE018002027
:10378000F8B5CE4647469046264E80B5814608227B
:1037900030000D001F00FEF7E7FD4346B360002335
:1037A000F381EC79AB7924021C43231CBC4200D981
:1037B0003B1C9FB2B381002C0ED0002F18D0434683
:1037C000002B2CD03B1C402F1BD89FB233787F2B73
:1037D0001CD80021144A0FE080212B780022994345
:1037E00048460023FFF790FFC0BCB946B046F8BD7D
:1037F0007F230022317899433B004846FFF784FF3E
:10380000F2E740239FB233787F2BE2D9064C3A008F
:1038100041462000FEF7A8FD80212200ECE70020B1
:10382000E2E7C046E0180020A018002010B51422DE
:1038300000210248FEF792FD10BDC046E0180020AE
:10384000014B18617047C046E018002010B5054CC8
:10385000010008222000FEF787FD0023A360E3603B
:1038600010BDC046E018002070B5384C1D0023780C
:103870000600DA09C9098A4210D00020002D00D0C4
:1038800070BD21003000FFF705F92369002B03D03C
:1038900022000321300098470120F1E7A0687F2B28
:1038A00005D8002834D02A002949FEF75DFDE289B9
:1038B000A1685219E38892B24919E281A16093424A
:1038C00014D03F2D12D9A389981A051C80B2402824
:1038D0002AD82078ADB27F2828D800219A4232D049
:1038E0001B4A2B003000FFF70FFFC9E72369002BAD
:1038F00005D0220002213000984700280AD08021FC
:1039000023780022994330000023FFF7FDFEB7E73C
:103910000020B5E700213000FFF76AF93000802170
:10392000FFF766F90120ABE74025D2E79A4207D0BE
:10393000074C2A002000FEF717FD80212200D0E767
:1039400080210022CDE70022CBE7C046E01800200E
:10395000A018002070B50500FFF7D0F9002800D1AD
:1039600070BDFFF7D3F90028FAD1EB005B19DB003B
:10397000134C5B19DB00E618F1780029F0D0103306
:103980001C19200000F0D2FB3F28E9D90020F17873
:10399000FFF792FE0028E3D0200000F0C7FB3F288D
:1039A00008D9084BEA01D218F17840230020FFF72C
:1039B000ABFED5E7F1780020FFF792FED0E7C046D6
:1039C00058160020D415002010B50400FFF796F912
:1039D000002801D1002010BDFFF798F90028F9D187
:1039E000E3001B19DB00044A1B19DB00D218137912
:1039F00001301840EFE7C04658160020C30010B54C
:103A00001B18DB001818034BC000C01800F070FB37
:103A100010BDC04668160020244BF0B5C646984637
:103A20008023C5002C18E4002418E400103406009C
:103A300000B544445B029A4200D31D4A200092B272
:103A400000F0D8FB0700FFF759F9002803D1380030
:103A500080BCB846F0BDFFF759F90028F7D1AD1981
:103A6000ED00AD19ED004544EB78002BEFD02000C0
:103A700000F05CFB3F28EAD90020E978FFF71CFE44
:103A80000028E4D0200000F051FB3F2808D9094B62
:103A9000F201D218E97840230020FFF735FED6E77F
:103AA000E9780020FFF71CFED1E7C0465816002039
:103AB000FFFF0000D4150020F8B50400FFF71EF941
:103AC000002801D10020F8BDFFF720F90028F9D126
:103AD000E5002D19ED002D19ED002E00134F2436B1
:103AE000F619300000F004FB0028EBD07F1900200D
:103AF000B978FFF7E1FD0028E4D00D4BE401E418AC
:103B000021004022300000F075FBB978051E08D076
:103B1000030022000020FFF7F7FD0028D2D0280084
:103B2000D1E70020FFF7DCFDCCE7C04658160020A7
:103B30001416002070B5C4002418E4000C4B24189F
:103B4000E400E418802305005B029A4200D3094A8E
:103B5000200092B200F016FC0600200000F0C8FA27
:103B60003F2801D8300070BD2800FFF7A5FFF9E716
:103B70007C160020FFFF00009222F0B500251B4CB0
:103B800083B0002120009200FEF7E8FB184B80264E
:103B90001D70FF236371E1235B02A36021000823F2
:103BA00020007600A373320038310095073B1030B7
:103BB00000F068FA21000123200039313200FF3182
:103BC0000093243000F05EFA8E239B00E718380043
:103BD000FDF766FB90239B00E6183000FDF760FBC5
:103BE000E56127622663656303B0F0BD58160020C7
:103BF000541600200B4B196B00290AD01A6A002AB0
:103C00000DD000221A621A63DA6100225A63012081
:103C100070471A6A002AFAD0D9611962F7E71A6365
:103C2000F3E7C0465816002070B50F4C052200215E
:103C30002000FEF793FB0D4D2B78DA0707D50C4CCF
:103C40009B070CD50121200000F078FC70BD2000FE
:103C5000103000F053FC2B78054C9B07F2D4200069
:103C600000F04CFCEEE7C046581600205416002029
:103C70007C160020F0B54B79060083B0022B02D1F0
:103C80008B79022B03D00025280003B0F0BD214F13
:103C9000BB78002BF7D18B7809253B700C780C1979
:103CA0006378242B0BD1082A02D80FE0AA420DD347
:103CB0002378E4185D196378ADB2242BF6D0052B78
:103CC00008D0042B02D163790A2B11D00020FFF712
:103CD00041FED9E721003000FFF7D4FC0028D2D004
:103CE000A3787B7023785D19E4186378ADB2E8E7B8
:103CF000094B2778019301330093022202233000FD
:103D0000E119FFF771FC0028BDD00E35ED19ADB2F9
:103D1000DCE7C046581600205A160020F8B560238C
:103D200014001278050013400020202B07D1304AE0
:103D30006379277916781B023B439E4200D0F8BD79
:103D40006378222B1AD007D8202B34D0212BF6D120
:103D500001293ED00120F2E7232BF0D1012940D0E8
:103D60000329F7D1234B002BF4D0E178A378090283
:103D70000020194300E000BF0120E0E7012930D016
:103D80000329E7D101252E00A378E4780239240223
:103D90001C431471264024321000714000F0CEFB09
:103DA000154B002BD6D06208002031002A4000E0DD
:103DB00000BF0120C3E701290BD00329CAD10F4B53
:103DC000002BC7D008320020110000E000BF012006
:103DD000B5E7072321002800094AFFF7D1FC01209D
:103DE000ADE721002800FFF7B5FC0120A7E7C0469A
:103DF0005816002000000000000000000000000035
:103E000060160020F0B54F464646D646364DC0B542
:103E1000EA781F0080460C00AB788A423BD08B4288
:103E200010D00020E0BCBA46B146A846F0BD2F4BEA
:103E3000002B04D02E4800F071F9002851D000204A
:103E4000FFF788FDAB78A34201D00120EAE7294BB8
:103E5000002B02D0002000E000BF0020FFF72CFE66
:103E60000028F2D1244C200000F042F90028ECD1C7
:103E7000002FEAD0BF06E8D1243C4046A178FFF7E6
:103E80001BFC0028E1D0002300224046A178FFF768
:103E90003BFC0120C6E710239A46184EAA44310085
:103EA0005046BAB200F06EFA154B002BBFD06B79BA
:103EB000FF2BBCD0002FBAD0F219914603E0013697
:103EC000B145B4D06B7932789A42F8D1504600F0BF
:103ED00025F90028F3D15346103B597900E000BF83
:103EE000EDE700E000BFAAE7581600200000000040
:103EF00068160020000000007C160020D415002069
:103F00000000000000B5030083B0002910D000209D
:103F1000012B07D80A78002A04D00B48C25401208C
:103F2000012A01D003B000BD1800FEF7F7FEF9E743
:103F3000012301A900200B80FEF7F0FE0028F1D03C
:103F40000122014B1A70EDE734190020037870B597
:103F5000DB0704000E00DD0F002B17D103785B0791
:103F600001D5280070BD01213000494200F080FCDD
:103F70002378DB07DD0F002B0AD123785B0708D4F9
:103F80000422237801251343237002E00025E8E78B
:103F90000025300000F04CFCE3E7C04670B50C0093
:103FA000012106004942200000F062FC33785B07E3
:103FB000DD0F002B04DB200000F03AFC280070BD70
:103FC0003378DB0704D40422337893433370F2E769
:103FD0000025F0E7437902791B021343C2785B05A1
:103FE00092075B0D920F022A1DD0032A0CD00020ED
:103FF000012A08D102394A425141124A9446614489
:1040000099424041C0B2704702394A1E91410E4A5E
:10401000494211408022D2009446002061449942D6
:104020004041C0B2EFE7022905D0002040229A4269
:104030004041C0B2E7E7054A981843425841C0B230
:10404000E1E7C046FF03000040FCFFFF00FEFFFF6A
:104050008A1870B5914207D27F264C78052C04D07F
:104060000C7809198A42F8D870BD34008D782C403C
:1040700064000419ED0963550C7809198A42ECD8DB
:10408000F2E7C046F0B5C64600B5040006A80578BC
:104090008020884617001E000002824226D8E06871
:1040A000002803D00121494200F0E2FB20690028EA
:1040B00003D00121494200F0DBFB43462360730437
:1040C0005B0CED031D430023E0686381A780E5805E
:1040D0002381002801D000F0ABFB2069002801D02B
:1040E00000F0A6FB012080BCB846F0BD0020FAE736
:1040F00010B5048941898288A3B288B28C4207D363
:104100001B1A9BB2101C9A4200D9181C80B210BD19
:104110005100091A5B189BB2F4E7C0460389408935
:10412000181A43425841C0B27047C04610B50489BE
:1041300041898288A3B288B28C4207D31B1A9BB2F2
:1041400000209A4201D9D21A90B210BD5100091A2A
:104150005B189BB2F4E7C04670B5040000690E001E
:10416000002803D00121494200F082FB25896089A3
:10417000A288A9B283B285422CD3CD1AADB2002D4C
:104180002ED0AA4208D2914230D3891A8BB26381D1
:104190009A4203D89B1A9BB29A42FBD9E2882168C3
:1041A0005204520C53433000C918FEF7DDF86389FE
:1041B0000125591C89B2A2888B4213D900215200D3
:1041C000891A89B220696181002801D000F030FB92
:1041D000280070BD5500ED1A4D19ADB2002DD0D19B
:1041E000618989B252009142ECDBE9E789188BB210
:1041F0006381CDE7F0B546464F46D646C0B50600CA
:10420000006989469046002803D00121494200F008
:104210002FFB31897289B5888BB294B2914254D305
:104220001F1BBFB2002F4AD0BD4205D2AB4251D2B4
:104230005B199CB22F0074814346B8453DD89FB2AC
:10424000A54203D8641BA4B2A542FBD9F288316809
:104250005204520C904662432B1B9BB28918424673
:104260009F4225D953439BB21A0048469A46FEF70F
:104270007BF8434648467D1B64195C4331685044D3
:10428000A2B2FEF771F87189B588CB199BB26A00AA
:10429000994216D99B1A9BB230697381002801D0CC
:1042A00000F0C6FA3800E0BCBA46B146A846F0BDF8
:1042B00048467A43FEF758F8E5E73B1CBFE77389A9
:1042C0009BB26A009342E7DBE4E76F003F1BDF1914
:1042D000BFB2A7E75B1B9CB2ACE7C046F8B50400D1
:1042E000C0680E00002803D00121494200F0C0FA46
:1042F000258920896189A288ADB283B28FB28842B4
:1043000029D3DB1B9BB29A4209D8E779FF0906D172
:10431000E068002801D000F08BFA3800F8BD954223
:104320001ED32B009B1A9BB29342FBD2E2882068DB
:104330005204520C53433100C018FEF715F86B1CA1
:104340009BB2A2889D4218D9002352009B1A9BB2AF
:1043500001272381DCE75100C91B5B189BB2D2E720
:104360002B00E28820685204520C53433100C018DD
:10437000FDF7FAFF0135A288ABB252009342E7DBAA
:10438000E4E7C046F0B557464546DE464E46E0B542
:10439000140005000F0083B0002A75D0C068002803
:1043A00003D00121494200F063FA2E89E9796A8934
:1043B000AB88B6B292B2C90945D1964200D36DE03E
:1043C00059008A1AB21892B2002189469A4234D210
:1043D0009A1A111C92B2A24200D9211C8AB29146AB
:1043E000EA885204520C90464A46B21892B292465B
:1043F0004A46D21A92B2934634009E4203D3E41A3C
:10440000A4B29C42FBD24246624328681B1B9BB26B
:10441000801842464B4554D34B4639005A43FDF76A
:10442000A3FFAB885B00564501D89A4503DB524693
:10443000D31A9BB29A4653462B81E868002825D0B0
:1044400000F0F6F922E0E9884904490C88469C42CC
:1044500027D2964247D3B11A89B28C465800E11A46
:1044600089B28B4661460919814208DBD11889B2AD
:104470000E1BB6B28A46B2423BD9361AB6B2A21960
:1044800092B29246A146B7E700239946484603B048
:10449000F0BCBB46B246A946A046F0BDB21A92B2E5
:1044A00092E700218946002BC7D04146E41A4C43CD
:1044B0001600D118002289B28A46994693463F19C0
:1044C0009AE753439BB21A0039005C440193FDF70D
:1044D0004BFF414622004A43019B286892B2F918DB
:1044E000FDF742FF9DE75800811A711889B28C468A
:1044F000B5E7A146B04200DD7EE7BEE710B5040097
:10450000C068002803D00121494200F0B1F92069B8
:10451000002803D00121494200F0AAF90023E068F5
:1045200063812381002801D000F082F920690028EE
:1045300001D000F07DF9012010BDC04670B5040027
:10454000C0680D00002803D00121494200F090F915
:104550002069002803D00121494200F089F97F2118
:10456000E379ED011940E0682943E171002801D0A9
:1045700000F05EF92069002801D000F059F901200F
:1045800070BDC04610B5024800F004F810BDC0462A
:10459000C41F002010B588B004000D220021684619
:1045A000FDF7DCFE0D22002104A8FDF7D7FE4B230A
:1045B0006A466846137004A90D2200F031F91521EE
:1045C000082220006944FDF7CFFE08B010BDC046A8
:1045D00070B5CCB283070DD0531E002A0FD003252F
:1045E00004E00130284206D0013B08D30278A24201
:1045F000F7D170BD1300032B03D8002B14D100207A
:10460000F7E7FF220A401502AD182A040B4EAD1839
:1046100003E0043B0430032BEFD9026808496A40E9
:10462000511891433142F4D0C31802E0013098424E
:10463000E5D00278A242F9D1DBE7C04680808080D5
:10464000FFFEFEFEF0B588420AD98B18984207D2C9
:10465000531E002A03D0CA5CC254013BFBD2F0BDFA
:1046600005000F2A0AD8561E002AF8D00023CC5C79
:104670001A00EC5401339642F9D1F0E703273E00CB
:104680000D430C0003002E402F422DD11500103D8C
:104690002D09AC462F013F1825681D6065685D60D7
:1046A000A5689D60E5681034DD601D001033BD42D3
:1046B000F2D165460F230C2401352D014919134011
:1046C0004519144213D0043B9B0801339B008C59BD
:1046D000AC5104369E42FAD103231A40AD19891910
:1046E000561E002AC2D1BAE70500561EBEE71A00C0
:1046F000B9E7C04610B5010000230022002000F0F9
:1047000043F810BD10B583070AD00300032102E06F
:1047100001330B4205D01A78002AF9D1181A10BDBE
:10472000030019680C4A0D4C8A188A4322420FD1A3
:104730005968094A04338A188A43224208D15968C1
:10474000054A04338A188A432242F1D000E001333B
:104750001A78002AFBD1E1E7FFFEFEFE8080808010
:1047600070B5074C074D641BA41005D0013CA30095
:10477000EB589847002CF9D100F04EF870BDC046B8
:104780001849001018490010F0B5C6461A4C00B57B
:104790002568002D2AD06C681F2C2ADC002808D13F
:1047A0000020631C0234A4006B60615180BCB846D9
:1047B000F0BD8827A600AE19F2510137FF37BC467D
:1047C0000122AC446746A2403F68904617436246C8
:1047D000176084277F00F3510228E1D12800424668
:1047E0008D30FF30036813430360D9E7034D256024
:1047F000D1E701204042D9E7CC1500203C1400202D
:10480000034B10B5002B02D00248FFF773FF10BD19
:104810000000000061470010F8B5C046000000002D
:1048200001B40248844601BC604700BF7D0E0020F1
:1048300001B40248844601BC604700BFED0100207E
:1048400001B40248844601BC604700BF850A0020CD
:1048500001B40248844601BC604700BF4D0F0020F0
:1048600001B40248844601BC604700BFAD0A002085
:1048700001B40248844601BC604700BF5D010020CE
:1048800001B40248844601BC604700BF1502002005
:1048900001B40248844601BC604700BFC10000204B
:1048A00001B40248844601BC604700BF3D0B0020B4
:1048B00001B40248844601BC604700BF8902002061
:1048C00001B40248844601BC604700BFED0A0020E5
:1048D0004D1F0010791F00105D2100104D230010A6
:1048E000B9210010BD22001085200010951F001076
:1048F000B51F0010C91F001051120010D11F001069
:1049000005160010151F0010290D00100148001099
:0849100085450010FD020010B6
:10491800746865206572617365206F706572617473
:10492800696F6E20686173206265656E20706572BC
:10493800666F726D6564206D6F7265207468616E54
:10494800203230302074696D657320696E20746878
:1049580069732073657373696F6E210A746F2070B1
:10496800726F746563742074686520666C6173681F
:104978002066726F6D206120706F74656E74696156
:104988006C20696E66696E6974652065726173650D
:10499800206C6F6F70207468652070726F67726129
:1049A8006D20686173206265656E2068616C74654E
:1049B8006400000041546D6567613332385000006F
:1049C80000000000415474696E7938350000000019
:1049D8004556416269747300525032303430204178
:1049E800565220495350000030303031000000004A
:1049F800434443000A2A2A2A2050414E4943202A88
:104A08002A2A0A000A0000004E6F207370696E6C33
:104A18006F636B732061726520617661696C616296
:104A28006C650000486172647761726520616C6131
:104A3800726D20256420616C726561647920636CF5
:104A480061696D6564000000486172642061737378
:104A58006572740052656C6561736500626F6F748E
:104A6800325F77323571303830000000322E322E06
:104A7800300000007069636F0000000070726F679B
:104A880000000000446563203135203230323500A3
:104A98005541525420737464696E00005541525454
:104AA800207374646F757400554152542073746494
:104AB800696E202F207374646F757400556E686179
:104AC8006E646C65642049525120307825780A005C
:104AD800657020253032582077617320616C7265CB
:104AE80061647920617661696C61626C65000000BF
:104AF80043616E277420636F6E74696E75652078E4
:104B0800666572206F6E20696E61637469766520D0
:104B180065702025303258004C4544001E950F0022
:104B2800BC49001000800000800000001E930B00AC
:104B3800CC4900100020000040000000AE06001024
:104B4800AE0600109406001094060010940600109B
:104B580094060010940600109406001094060010A5
:104B68009406001094060010940600109406001095
:104B78009406001094060010940600101807001000
:104B8800520700104C0700109406001094060010FD
:104B98006007001094060010940600109406001098
:104BA8009406001094060010940600109406001055
:104BB800940600109406001094060010AE0600102B
:104BC800AE060010AE060010AE06001094060010E7
:104BD800180700105A0700109406001094060010D9
:104BE8009406001094060010940600109406001015
:104BF8009406001094060010940600109406001005
:104C08009406001094060010940600102007001067
:104C180094060010940600109406001094060010E4
:104C280094060010940600109406001094060010D4
:104C380094060010940600109406001094060010C4
:104C48009406001094060010940600101208001034
:104C5800AE060010C2070010F00900107C07001013
:104C68007C0700107C0700107C0700107C070010F0
:104C78007C0700107C0700107C0700107C070010E0
:104C88007C0700107C0700107C0700107C070010D0
:104C98007C070010780A001076070010C207001081
:104CA8007C0700107C070010C20700107C0700106A
:104CB8007C0700107C0700107C0700107C070010A0
:104CC8007C0700107C0700107C0700107C07001090
:104CD8007C070010180800106A080010BE070010B2
:104CE800700800107C0700100E0A0010220A00103D
:104CF8007C0700107C0700107C0700107C07001060
:104D08007C0700107C0700107C0700107C0700104F
:104D18007C0700107C0700107C0700107C0700103F
:104D28007C070010800900107C0700107C07001029
:104D38007C0700107C0700107C0700107C0700101F
:104D48007C0700107C0700107C0700107C0700100F
:104D58007C0700107C0700107C0700107C070010FF
:104D68007C070010CC080010840800100201120013
:104D78004156522049535000944D0010D849001014
:104D8800E0490010F0490010F8490010090400003B
:104D980009024B00020100A032080B0002020200C7
:104DA8000009040000010202000405240020010596
:104DB80024010001042402060524060001070581D8
:104DC8000308001009040100020A00000007050298
:104DD80002400000070582024000000012010002A4
:104DE800EF0201408A2E0A000001010203010000BF
:104DF80006005250D3F075425C4A0010060052502B
:104E0800E182887F644A001006005250ABB36053B9
:104E1800744A001006005250BBFF3CB67C4A001092
:104E280006005250861C0302844A001006005250A5
:104E38005422A29D8C4A001005005250DE65F46889
:104E4800585F00100D0A00000600525053B4F4A138
:104E5800B04A0010080052501200000008005250DA
:104E6800921000003C2E0010A42F00102C300010CF
:104E78007C2F00108E2F00106C2F0010DC2E0010DD
:104E8800882E00107C2E0010443300102A330010A6
:104E98001A310010643300101A3100101233001058
:104EA800FE3200101A310010EA320010FA310010F8
:104EB8001A310010C2350010B4350010A8350010A2
:104EC8001A3100101A31001092350010B435001054
:104ED8001A3100101A3100101A3100101A3100105E
:104EE8001A3100101A3100101A3100104C35001018
:104EF8000E0C00200E0C0020580C0020780C00200E
:104F0800B60C0020C80C0020040C00200000000093
:104F1800793B0010F53B0010293C0010753C00104F
:104F28001D3D0010053E0010000000000900525011
:104F380000000002204B001008005250121002001E
:104F4800F84D0010044E0010104E00101C4E0010BA
:104F5800284E0010344E0010404E0010404F0010F4
:104F6800344F0010644E00105C4E0010504E00107C
:104F7800F0B5C646150000B504001E000268EFF340
:104F8800108172B61368002BFCD0BFF35F8F042327
:104F9800E356002B2DDB2268BFF35F8F00201060E3
:104FA80081F31088D0221206127852B290469A42A3
:104FB80003D1002080BCB846F0BD00270BE0236871
:104FC800BFF35F8F1F6081F310882800310000F065
:104FD80047FF0028EDD12268EFF3108172B61368FD
:104FE800002BFCD0BFF35F8F23797F2BE7D9434693
:104FF80002E0D0231B061B6823712368BFF35F8F71
:1050080000221A6081F310880120D3E7F0B5C64664
:1050180000B50D00040000F00BFFFA2206000F0097
:10502800002328000021920000F0FAFE80233618A1
:105038004F411B069F4202D30126174F7642D023C9
:105048001B061B68002598460BE02368BFF35F8F9B
:105058001D6081F310883000390000F001FF00283E
:1050680018D12268EFF3108172B61368002BFCD0B8
:10507800BFF35F8F23797F2BE7D9434623712368DA
:10508800BFF35F8F00221A6081F31088012080BC73
:10509800B846F0BD0020FAE7FFFFFF7F0268EFF394
:1050A800108172B61368002BFCD0BFF35F8FFF230B
:1050B80003710368BFF35F8F00221A6081F31088C1
:1050C80040BF7047F0B506001C0018001D000423FF
:1050D800CE4647469C46023B994680B500281CD0E0
:1050E800002C07D1002D18D06346F7683B4218D131
:1050F800002CF9D088464B46F7683B4218D0270069
:105108000837AF4214D943461F78013CB7600131D4
:105118002700002DE8D1002FE2D1C0BCB946B04627
:10512800F0BDB768013D17702F0001322743F2E741
:10513800002DE0D0D8E7C0460022154B10B59A6084
:10514800DA601A615A619A61DA611A625A629A627D
:10515800DA621A635A639A63DA631A645A649A645D
:10516800DA641A655A659A65DA651A665A669A663D
:10517800DA661A675A679A67DA67F032920000218E
:10518800044800F075FE044B044A1A6010BDC0467E
:1051980000001050E81B0020AC1F002080011050B8
:1051A800F0B54E464546DE465746E0B5214B00244D
:1051B8009E6D012585B0002E22D01F4B9A460123F3
:1051C80099461E4B984601E0202C19D02A0023004E
:1051D80001342F003240E4B26D00002AF4D0524668
:1051E80097654A465B085B0022409B185B01434475
:1051F80018009B4600F030FC002808D1BE43E3D1DC
:1052080005B0F0BCBB46B246A946A046F0BD5B4619
:10521800E0219A78DB8A01A883600023C900018015
:1052280001210271437100F037FC584600F0B0FBD1
:10523800E4E7C0460000115000301150A81B0020C0
:105248009823F0B5C646C64A00B5D55880232E0027
:105258009B02102484B01E401D4273D0C14BC24C27
:105268009A6AC24B00261A603B23E35C022B00D1EA
:10527800F4E07B23E35C022B00D10CE1BB23E35C6D
:10528800022B00D1FBE0FB23E35C022B00D135E1CC
:105298003C23FF33E35C022B00D122E17C23FF3364
:1052A800E35C022B00D10FE1BC23FF33E35C022B4C
:1052B80000D1FCE0FC23FF33E35C022B00D1A6E124
:1052C800AB4BE35C022B00D196E1AA4BE35C022BCB
:1052D80000D185E1A84BE35C022B00D174E1A74B18
:1052E800E35C022B00D163E1A54BE35C022B00D108
:1052F8002AE1A44BE35C022B00D10BE1A24BE35C57
:10530800022B00D18FE1A14BE35C022B00D1A6E177
:10531800002E08D19E4B1B78002B04D180219D4A7A
:1053280090338902D150C0228D4B01A89B6C92000A
:105338005B055B0D012180260280436000F0ACFB19
:10534800954CB602EB0600D57CE080235B021D423B
:1053580032D01E43012302249846834FBB7E002B84
:1053680014D000F04DFD012800D96FE0C0220021C3
:105378003800920100F012FB380000F009FB00F041
:105388003FFD012802D9834B5C661C664346FB70CF
:105398002037012C01D00124E0E7C02301A8DB005D
:1053A8007E4A038002AB12CA12C3012100F074FBCB
:1053B8008022784B92021A6580235B011D420ED130
:1053C8008023DB011D4221D180231B021D422CD1E9
:1053D800AE4200D0C0E104B080BCB846F0BD0024A5
:1053E8001E435F4B1C60FFF7A7FE80236A465B00E5
:1053F80093801472012101A800F04EFB8022654BB6
:1054080012031A658023DB011D42DDD01E43802371
:1054180001A8DB000380012100F03EFB10225D4B58
:105428001A6580231B021D42D2D01E43A02301A867
:10543800DB000380012100F02FFB8022554B120175
:105448001A65C5E7FFF7ACFE26007EE7544B444AD1
:105458001C66536E2340A342FBD187E73833E65CD2
:10546800002E00D105E70233E25C002A00D100E7F4
:10547800200000222030E25400F0B8FAF9E6B833F0
:10548800E75C002F00D1FEE60233E25C002A00D080
:1054980022E13E00F7E67833E75C002F00D1EDE625
:1054A8000233E25C002A00D00EE13E00E6E6B933A2
:1054B800FF33E75C002F00D1FCE60233E25C002AF0
:1054C80000D0F8E03E00F5E67933FF33E75C002FC3
:1054D80000D1E9E60233E25C002A00D0E2E03E00B7
:1054E800E2E63933FF33E75C002F00D1D6E602331A
:1054F800E25C002A00D0CCE03E00CFE6F833E75C5F
:10550800002F00D1C4E60233E25C002A00D0B8E0E4
:105518003E00BDE6234BE75C002F00D1EEE60233E8
:10552800E25C002A00D010E1174BE35C022B00D1AB
:105538008BE0164BE35C022B00D0F4E61A4BE35CDD
:10554800002B00D090E0EEE6184BE75C002F00D16E
:10555800CFE60233E25C002A00D0EEE03E00C8E667
:105568000000115000400540A81B00209C1B002093
:105578003B0200007B020000BB020000FB020000AF
:105588003B0300007B030000BB030000FB0300009B
:10559800E1230020003011501000020000001050DC
:1055A800002011507A030000FA0300003A030000BB
:1055B8006C4BE75C002F00D196E60233E25C002AD0
:1055C80000D0B2E03E008FE6674BE75C002F00D1C9
:1055D80085E60233E25C002A00D09EE03E007EE6CB
:1055E800624BE75C002F00D174E60233E25C002ACC
:1055F80000D08AE03E006DE65D4BE75C002F00D1ED
:1056080063E60233E25C002A77D13E005DE6F933B7
:10561800FF33E75C002F00D152E60233E25C002A38
:1056280062D13E004CE6534BE35C002B00D16AE6A6
:10563800EF239B00E25C002A00D17AE70022E254C3
:105648001C3BE01800F0D2F973E74A4BE35C002BEF
:10565800EED1494BE35C022B00D064E63E00474B99
:10566800E35C002B00D153E6FF239B00E25C002A99
:1056780000D158E60022E2541C3BE01800F0B6F9CD
:1056880051E620000022E030E2543E0000F0AEF97E
:10569800FEE5200000222130FF30E2543E0000F0F9
:1056A800A5F9FBE5200000226130FF30E2543E00FE
:1056B80000F09CF9F8E520000022A130FF30E25408
:1056C8003E0000F093F9F5E5200000226030E25436
:1056D8003E0000F08BF9D1E520000022A030E25412
:1056E8003E0000F083F9CEE520000022E130FF30D3
:1056F800E2543E0000F07AF9E2E50022E2541C3B55
:10570800E01800F073F93E00DFE50022E2541C3B8C
:10571800E01800F06BF93E00DCE50022E2541C3B87
:10572800E01800F063F93E00D9E50022E2541C3B82
:10573800E01800F05BF93E00D6E50022E2541C3B7D
:10574800E01800F053F93E00D3E50022E2541C3B78
:10575800E01800F04BF9E7E631000948694000F02D
:1057680057FBC046FA020000BA0200007A020000A5
:105778003A020000BA030000FB030000FA0300002D
:10578800C44A0010F0B5D6464F464646C0B502009A
:10579800838A008B8A46041C984200D91C1CD57841
:1057A80080262800471EB841A4B2F60026434003CD
:1057B8003043012675401B1BD57055789BB29382E8
:1057C800002D37D15146D6688D01611E761988465D
:1057D8001569002C29D006293AD933002B439B0799
:1057E80036D16B1CF31A022B32D9231F9B080133C5
:1057F8009C4600270023E9580137F1500433BC4583
:10580800F9D8634641469B00ED18F618CF1A9C421A
:1058180009D02B783370002F05D06B787370012F67
:1058280001D0AB78B3701569938A2D191561802260
:1058380012021043002B02D18023DB011843534688
:10584800002B00D00004E0BCBA46B146A846F0BD23
:105858000023EF5CF75401339C42FAD11569938A0F
:10586800E3E7C0468368F0B51B680500002900D04F
:105878001B0C9B05980D6B78002B08D1EB8AC3187D
:10588800EB822B8B834201D90023AB82F0BDEB68FE
:105898008901461EB4462A695C18002827D0062EBE
:1058A8002BD901315B18D31A022B26D913002343B5
:1058B8009B0722D100230021061FB6080136E758AE
:1058C8000131D75004338E42F9D86346B600A41983
:1058D80092199F1BB04209D023781370002F05D06E
:1058E80063785370012F01D0A37893702A69EB8AEB
:1058F8001218C318EB822A61C3E70023E15CD15474
:1059080001339842FAD12A69F1E7C04610B504007C
:10591800836800211B68FFF7A5FF63681B685B00AD
:1059280002D5238B834200D010BD01212000FFF750
:1059380099FFF9E7084A0300126C0020920703D484
:105948009A78D209012A00D07047D87E023843429B
:105958005841C0B2F8E7C0460000115010B5FFF733
:10596800E9FF00280CD00749074B8C46074A9B6A79
:10597800126863449B1A0020C6229A424041C0B272
:1059880010BDC046E0FCFFFF004005409C1B002006
:1059980000238376436103617047C04610B583686E
:1059A800002901D01C682140002A12D08024E4007C
:1059B800114322420DD01A6822420CD1084A0A40EB
:1059C8001A60084A126C920703D40C23033BFDD2D9
:1059D8008368196010BD8178034800F019FAC04641
:1059E800FFFBFFFF00001150D84A0010436870B554
:1059F800002180251E680400FFF7C4FE134B6D01CB
:105A08001B6C05439B070FD5A3785B060FD0104B83
:105A18001E4080239B0533436268002113602000E9
:105A28002A00FFF7BBFF70BDA378DB09EFD0A38A7C
:105A3800002BECD001212000FFF7A4FEA023054A8B
:105A4800DB05324005431343E6E7C046000011502A
:105A5800FFFFFFAFFFFFFFDF70B5857E0400002D5D
:105A680014D0FFF753FFA38A002B01D1280070BD83
:105A78002000FFF773FF002803D0012300252377B8
:105A8800F4E72000FFF7B2FF0025EFE7817801482F
:105A980000F0BEF9F84A0010F0B5CE46474680B58A
:105AA800437805000E0085B0062B08D86B4A9B008A
:105AB800D3589F466A4A13780133DBB21370694B97
:105AC8001C686269EFF3108172B61368002BFCD072
